{
  "contractName": "Registrar",
  "abi": [
    {
      "inputs": [
        {
          "name": "domainList",
          "type": "bytes32[]"
        }
      ],
      "payable": false,
      "stateMutability": "nonpayable",
      "type": "constructor"
    },
    {
      "constant": false,
      "inputs": [
        {
          "name": "email",
          "type": "bytes32"
        },
        {
          "name": "idnum",
          "type": "uint16"
        },
        {
          "name": "_domain",
          "type": "bytes32"
        },
        {
          "name": "_permreq",
          "type": "uint8"
        }
      ],
      "name": "registerVoter",
      "outputs": [],
      "payable": false,
      "stateMutability": "nonpayable",
      "type": "function"
    },
    {
      "constant": false,
      "inputs": [
        {
          "name": "email",
          "type": "bytes32"
        }
      ],
      "name": "givePermission",
      "outputs": [],
      "payable": false,
      "stateMutability": "nonpayable",
      "type": "function"
    },
    {
      "constant": false,
      "inputs": [
        {
          "name": "_domain",
          "type": "bytes32"
        }
      ],
      "name": "addDomains",
      "outputs": [],
      "payable": false,
      "stateMutability": "nonpayable",
      "type": "function"
    },
    {
      "constant": true,
      "inputs": [
        {
          "name": "domain",
          "type": "bytes32"
        }
      ],
      "name": "domainCheck",
      "outputs": [
        {
          "name": "",
          "type": "bool"
        }
      ],
      "payable": false,
      "stateMutability": "view",
      "type": "function"
    },
    {
      "constant": true,
      "inputs": [
        {
          "name": "email",
          "type": "bytes32"
        },
        {
          "name": "idnum",
          "type": "uint16"
        }
      ],
      "name": "checkReg",
      "outputs": [
        {
          "name": "",
          "type": "bool"
        }
      ],
      "payable": false,
      "stateMutability": "view",
      "type": "function"
    },
    {
      "constant": true,
      "inputs": [
        {
          "name": "email",
          "type": "bytes32"
        }
      ],
      "name": "checkVoter",
      "outputs": [
        {
          "name": "",
          "type": "uint8"
        }
      ],
      "payable": false,
      "stateMutability": "view",
      "type": "function"
    },
    {
      "constant": false,
      "inputs": [
        {
          "name": "_ballotAddr",
          "type": "address"
        },
        {
          "name": "_ballotID",
          "type": "uint32"
        }
      ],
      "name": "setAddress",
      "outputs": [],
      "payable": false,
      "stateMutability": "nonpayable",
      "type": "function"
    },
    {
      "constant": true,
      "inputs": [
        {
          "name": "_ballotID",
          "type": "uint32"
        }
      ],
      "name": "getAddress",
      "outputs": [
        {
          "name": "",
          "type": "address"
        }
      ],
      "payable": false,
      "stateMutability": "view",
      "type": "function"
    },
    {
      "constant": true,
      "inputs": [
        {
          "name": "_email",
          "type": "bytes32"
        }
      ],
      "name": "getPermission",
      "outputs": [
        {
          "name": "",
          "type": "uint8"
        }
      ],
      "payable": false,
      "stateMutability": "view",
      "type": "function"
    }
  ],
  "bytecode": "0x6060604052341561000f57600080fd5b6040516109b33803806109b3833981016040528080518201919050508060008001908051906020019061004392919061008b565b5033600960006101000a81548173ffffffffffffffffffffffffffffffffffffffff021916908373ffffffffffffffffffffffffffffffffffffffff16021790555050610103565b8280548282559060005260206000209081019282156100cd579160200282015b828111156100cc5782518290600019169055916020019190600101906100ab565b5b5090506100da91906100de565b5090565b61010091905b808211156100fc5760008160009055506001016100e4565b5090565b90565b6108a1806101126000396000f300606060405260043610610099576000357c0100000000000000000000000000000000000000000000000000000000900463ffffffff168063138d94551461009e57806333d33167146100df57806355f16d7c14610120578063646208581461015f57806364bb5657146101ab57806368501aee146101d2578063794459dd1461023b5780638a1d37ea14610283578063d2c09a59146102aa575b600080fd5b34156100a957600080fd5b6100c36004808035600019169060200190919050506102f7565b604051808260ff1660ff16815260200191505060405180910390f35b34156100ea57600080fd5b6101046004808035600019169060200190919050506103c0565b604051808260ff1660ff16815260200191505060405180910390f35b341561012b57600080fd5b6101456004808035600019169060200190919050506103f4565b604051808215151515815260200191505060405180910390f35b341561016a57600080fd5b61019160048080356000191690602001909190803561ffff16906020019091905050610458565b604051808215151515815260200191505060405180910390f35b34156101b657600080fd5b6101d06004808035600019169060200190919050506104d7565b005b34156101dd57600080fd5b6101f9600480803563ffffffff1690602001909190505061056e565b604051808273ffffffffffffffffffffffffffffffffffffffff1673ffffffffffffffffffffffffffffffffffffffff16815260200191505060405180910390f35b341561024657600080fd5b610281600480803573ffffffffffffffffffffffffffffffffffffffff1690602001909190803563ffffffff169060200190919050506105ba565b005b341561028e57600080fd5b6102a8600480803560001916906020019091905050610680565b005b34156102b557600080fd5b6102f560048080356000191690602001909190803561ffff169060200190919080356000191690602001909190803560ff16906020019091905050610710565b005b60008060006003016000846000191660001916815260200190815260200160002060009054906101000a900461ffff1661ffff16141561033a57600190506103bb565b3373ffffffffffffffffffffffffffffffffffffffff1660006001016000846000191660001916815260200190815260200160002060009054906101000a900473ffffffffffffffffffffffffffffffffffffffff1673ffffffffffffffffffffffffffffffffffffffff161415156103b657600290506103bb565b600090505b919050565b6000806002016000836000191660001916815260200190815260200160002060009054906101000a900460ff169050919050565b600080600090505b600080018054905081101561044d578260001916600080018281548110151561042157fe5b9060005260206000209001546000191614156104405760019150610452565b80806001019150506103fc565b600091505b50919050565b60008060006003016000856000191660001916815260200190815260200160002060009054906101000a900461ffff1661ffff161480156104be57506000600102600060040160008461ffff1661ffff1681526020019081526020016000205460001916145b156104cc57600190506104d1565b600090505b92915050565b600960009054906101000a900473ffffffffffffffffffffffffffffffffffffffff1673ffffffffffffffffffffffffffffffffffffffff163373ffffffffffffffffffffffffffffffffffffffff1614151561053357600080fd5b600160006002016000836000191660001916815260200190815260200160002060006101000a81548160ff021916908360ff16021790555050565b6000600560000160008363ffffffff1663ffffffff16815260200190815260200160002060009054906101000a900473ffffffffffffffffffffffffffffffffffffffff169050919050565b81600560000160008363ffffffff1663ffffffff16815260200190815260200160002060006101000a81548173ffffffffffffffffffffffffffffffffffffffff021916908373ffffffffffffffffffffffffffffffffffffffff16021790555080600560010160008473ffffffffffffffffffffffffffffffffffffffff1673ffffffffffffffffffffffffffffffffffffffff16815260200190815260200160002060006101000a81548163ffffffff021916908363ffffffff1602179055505050565b600960009054906101000a900473ffffffffffffffffffffffffffffffffffffffff1673ffffffffffffffffffffffffffffffffffffffff163373ffffffffffffffffffffffffffffffffffffffff161415156106dc57600080fd5b6000800180548060010182816106f29190610824565b91600052602060002090016000839091909150906000191690555050565b6000151561071d836103f4565b1515141561072a57600080fd5b8260006003016000866000191660001916815260200190815260200160002060006101000a81548161ffff021916908361ffff1602179055508060006002016000866000191660001916815260200190815260200160002060006101000a81548160ff021916908360ff1602179055503360006001016000866000191660001916815260200190815260200160002060006101000a81548173ffffffffffffffffffffffffffffffffffffffff021916908373ffffffffffffffffffffffffffffffffffffffff16021790555083600060040160008561ffff1661ffff168152602001908152602001600020816000191690555050505050565b81548183558181151161084b5781836000526020600020918201910161084a9190610850565b5b505050565b61087291905b8082111561086e576000816000905550600101610856565b5090565b905600a165627a7a723058202178ff92e388300b0af3e24ea4a81027d88b980b7f0e5256235be6ba8e2b70c40029",
  "source": "pragma solidity ^0.4.19;\n\ncontract Registrar {\n\n    struct Voter {\n        bytes32[] allowedDomains;\n        mapping (bytes32 => address) voterAddr;\n        mapping (bytes32 => uint8) createPerm;\n        mapping (bytes32 => uint16) voterID;\n        mapping (uint16 => bytes32) voterEmail;\n    }\n\n    struct Ballot {\n        mapping (uint32 => address) votingAddress;\n        mapping (address => uint32) ballotID;\n        mapping (uint64 => uint8) whitelistCheck;\n        mapping (bytes32 => uint8) allowedVoters;\n    }\n\n    Voter v;\n    Ballot b;\n    address owner;\n\n    function Registrar(bytes32[] domainList) public {\n        v.allowedDomains = domainList;\n        owner = msg.sender;\n    }\n\n    modifier onlyOwner {\n        require(msg.sender == owner);\n        _;\n    }\n\n    function registerVoter(bytes32 email, uint16 idnum, bytes32 _domain, uint8 _permreq) public {\n        if (domainCheck(_domain) == false) revert();\n        v.voterID[email] = idnum;\n        v.createPerm[email] = _permreq;\n        v.voterAddr[email] = msg.sender;\n        v.voterEmail[idnum] = email;\n    }\n\n    function givePermission(bytes32 email) public onlyOwner {\n        v.createPerm[email] = 1;\n    }\n\n    function addDomains(bytes32 _domain) public onlyOwner {\n        v.allowedDomains.push(_domain);\n    }\n\n    function domainCheck(bytes32 domain) public view returns (bool) {\n        for(uint i = 0; i < v.allowedDomains.length; i++) {\n            if (v.allowedDomains[i] == domain) {\n                return true;\n            }\n        }\n        return false;\n    }\n\n    function checkReg(bytes32 email, uint16 idnum) public view returns (bool) {\n        if (v.voterID[email] == 0 && v.voterEmail[idnum] == 0) return true;\n        else return false;\n    }\n\n    function checkVoter(bytes32 email) public view returns (uint8) {\n        if (v.voterID[email] == 0) return 1;\n        if (v.voterAddr[email] != msg.sender) return 2;\n        else return 0;\n    }\n\n    function setAddress(address _ballotAddr, uint32 _ballotID) public {\n        b.votingAddress[_ballotID] = _ballotAddr;\n        b.ballotID[_ballotAddr] = _ballotID;\n    }\n\n    function getAddress(uint32 _ballotID) public view returns (address) {\n        return b.votingAddress[_ballotID];\n    }\n\n    function getPermission(bytes32 _email) public view returns (uint8) {\n        return v.createPerm[_email];\n    }\n}\n",
  "sourcePath": "/home/ispm-eth/Ethereum/TempVotes/contracts/Registrar.sol",
  "compiler": {
    "name": "solc",
    "version": "0.4.19+commit.c4cbbb05.Emscripten.clang"
  },
  "schemaVersion": "1.0.1",
  "updatedAt": "2018-05-03T17:57:38.086Z"
}