{
  "contractName": "Voting",
  "abi": [
    {
      "inputs": [
        {
          "name": "_timeLimit",
          "type": "uint32"
        },
        {
          "name": "_ballotType",
          "type": "uint8"
        },
        {
          "name": "_voteLimit",
          "type": "uint8"
        },
        {
          "name": "_ballotId",
          "type": "uint32"
        },
        {
          "name": "_title",
          "type": "string"
        },
        {
          "name": "_whitelist",
          "type": "uint8"
        },
        {
          "name": "_votesToWin",
          "type": "uint8"
        },
        {
          "name": "_owner",
          "type": "address"
        }
      ],
      "payable": false,
      "stateMutability": "nonpayable",
      "type": "constructor"
    },
    {
      "anonymous": false,
      "inputs": [],
      "name": "DelayVoting",
      "type": "event"
    },
    {
      "constant": false,
      "inputs": [
        {
          "name": "_candidates",
          "type": "bytes32[]"
        }
      ],
      "name": "setCandidates",
      "outputs": [],
      "payable": false,
      "stateMutability": "nonpayable",
      "type": "function"
    },
    {
      "constant": false,
      "inputs": [
        {
          "name": "_emails",
          "type": "bytes32[]"
        }
      ],
      "name": "setWhitelisted",
      "outputs": [],
      "payable": false,
      "stateMutability": "nonpayable",
      "type": "function"
    },
    {
      "constant": false,
      "inputs": [],
      "name": "hashCandidates",
      "outputs": [],
      "payable": false,
      "stateMutability": "nonpayable",
      "type": "function"
    },
    {
      "constant": false,
      "inputs": [
        {
          "name": "_votes",
          "type": "uint256[]"
        },
        {
          "name": "_email",
          "type": "bytes32"
        },
        {
          "name": "_candidates",
          "type": "bytes32[]"
        }
      ],
      "name": "voteForCandidate",
      "outputs": [],
      "payable": false,
      "stateMutability": "nonpayable",
      "type": "function"
    },
    {
      "constant": true,
      "inputs": [
        {
          "name": "cHash",
          "type": "bytes32"
        }
      ],
      "name": "votesFor",
      "outputs": [
        {
          "name": "",
          "type": "uint256"
        }
      ],
      "payable": false,
      "stateMutability": "view",
      "type": "function"
    },
    {
      "constant": true,
      "inputs": [
        {
          "name": "cHash",
          "type": "bytes32"
        }
      ],
      "name": "totalVotesFor",
      "outputs": [
        {
          "name": "",
          "type": "uint256"
        }
      ],
      "payable": false,
      "stateMutability": "view",
      "type": "function"
    },
    {
      "constant": true,
      "inputs": [
        {
          "name": "cHash",
          "type": "bytes32"
        }
      ],
      "name": "validCandidate",
      "outputs": [
        {
          "name": "",
          "type": "bool"
        }
      ],
      "payable": false,
      "stateMutability": "view",
      "type": "function"
    },
    {
      "constant": true,
      "inputs": [
        {
          "name": "_ballotID",
          "type": "uint64"
        }
      ],
      "name": "candidateList",
      "outputs": [
        {
          "name": "",
          "type": "bytes32[]"
        }
      ],
      "payable": false,
      "stateMutability": "view",
      "type": "function"
    },
    {
      "constant": true,
      "inputs": [],
      "name": "checkTimelimit",
      "outputs": [
        {
          "name": "",
          "type": "bool"
        }
      ],
      "payable": false,
      "stateMutability": "view",
      "type": "function"
    },
    {
      "constant": true,
      "inputs": [
        {
          "name": "cHash",
          "type": "bytes32"
        }
      ],
      "name": "checkVotesToWin",
      "outputs": [
        {
          "name": "",
          "type": "uint256"
        }
      ],
      "payable": false,
      "stateMutability": "view",
      "type": "function"
    },
    {
      "constant": true,
      "inputs": [],
      "name": "checkVoteattempts",
      "outputs": [
        {
          "name": "",
          "type": "bool"
        }
      ],
      "payable": false,
      "stateMutability": "view",
      "type": "function"
    },
    {
      "constant": true,
      "inputs": [],
      "name": "checkWhitelist",
      "outputs": [
        {
          "name": "",
          "type": "bool"
        }
      ],
      "payable": false,
      "stateMutability": "view",
      "type": "function"
    },
    {
      "constant": true,
      "inputs": [
        {
          "name": "email",
          "type": "bytes32"
        }
      ],
      "name": "checkifWhitelisted",
      "outputs": [
        {
          "name": "",
          "type": "bool"
        }
      ],
      "payable": false,
      "stateMutability": "view",
      "type": "function"
    },
    {
      "constant": true,
      "inputs": [],
      "name": "getTimelimit",
      "outputs": [
        {
          "name": "",
          "type": "uint32"
        }
      ],
      "payable": false,
      "stateMutability": "view",
      "type": "function"
    },
    {
      "constant": true,
      "inputs": [],
      "name": "getTitle",
      "outputs": [
        {
          "name": "",
          "type": "string"
        }
      ],
      "payable": false,
      "stateMutability": "view",
      "type": "function"
    },
    {
      "constant": true,
      "inputs": [],
      "name": "getBallotType",
      "outputs": [
        {
          "name": "",
          "type": "uint8"
        }
      ],
      "payable": false,
      "stateMutability": "view",
      "type": "function"
    },
    {
      "constant": true,
      "inputs": [],
      "name": "getVotesToWin",
      "outputs": [
        {
          "name": "",
          "type": "uint8"
        }
      ],
      "payable": false,
      "stateMutability": "view",
      "type": "function"
    },
    {
      "constant": true,
      "inputs": [],
      "name": "getBallotStatus",
      "outputs": [
        {
          "name": "",
          "type": "uint8"
        }
      ],
      "payable": false,
      "stateMutability": "view",
      "type": "function"
    },
    {
      "constant": false,
      "inputs": [],
      "name": "changeBallotStatus",
      "outputs": [],
      "payable": false,
      "stateMutability": "nonpayable",
      "type": "function"
    },
    {
      "constant": false,
      "inputs": [
        {
          "name": "_email",
          "type": "bytes32"
        }
      ],
      "name": "addVoteForWinning",
      "outputs": [],
      "payable": false,
      "stateMutability": "nonpayable",
      "type": "function"
    },
    {
      "constant": false,
      "inputs": [
        {
          "name": "_email",
          "type": "bytes32"
        }
      ],
      "name": "addVoteForRunnerUp",
      "outputs": [],
      "payable": false,
      "stateMutability": "nonpayable",
      "type": "function"
    },
    {
      "constant": false,
      "inputs": [
        {
          "name": "_email",
          "type": "bytes32"
        }
      ],
      "name": "addVoteForLosing",
      "outputs": [],
      "payable": false,
      "stateMutability": "nonpayable",
      "type": "function"
    },
    {
      "constant": true,
      "inputs": [],
      "name": "getpVotesWinning",
      "outputs": [
        {
          "name": "",
          "type": "uint8"
        }
      ],
      "payable": false,
      "stateMutability": "view",
      "type": "function"
    },
    {
      "constant": true,
      "inputs": [],
      "name": "getpVotesRunnerUp",
      "outputs": [
        {
          "name": "",
          "type": "uint8"
        }
      ],
      "payable": false,
      "stateMutability": "view",
      "type": "function"
    },
    {
      "constant": true,
      "inputs": [],
      "name": "getpVotesLosing",
      "outputs": [
        {
          "name": "",
          "type": "uint8"
        }
      ],
      "payable": false,
      "stateMutability": "view",
      "type": "function"
    }
  ],
  "bytecode": "0x606060405234156200001057600080fd5b60405162001c6a38038062001c6a8339810160405280805190602001909190805190602001909190805190602001909190805190602001909190805182019190602001805190602001909190805190602001909190805190602001909190505087600560000160066101000a81548163ffffffff021916908363ffffffff16021790555086600560000160006101000a81548160ff021916908360ff16021790555085600560000160056101000a81548160ff021916908360ff16021790555084600560000160016101000a81548163ffffffff021916908363ffffffff16021790555083600560010190805190602001906200010f9291906200020e565b5082600560020160006101000a81548160ff021916908360ff16021790555081600560020160016101000a81548160ff021916908360ff1602179055506000600560020160026101000a81548160ff021916908360ff16021790555080601060006101000a81548173ffffffffffffffffffffffffffffffffffffffff021916908373ffffffffffffffffffffffffffffffffffffffff1602179055506000601060146101000a81548160ff021916908360ff1602179055506000601060156101000a81548160ff021916908360ff1602179055506000601060166101000a81548160ff021916908360ff1602179055505050505050505050620002bd565b828054600181600116156101000203166002900490600052602060002090601f016020900481019282601f106200025157805160ff191683800117855562000282565b8280016001018555821562000282579182015b828111156200028157825182559160200191906001019062000264565b5b50905062000291919062000295565b5090565b620002ba91905b80821115620002b65760008160009055506001016200029c565b5090565b90565b61199d80620002cd6000396000f300606060405260043610610149576000357c0100000000000000000000000000000000000000000000000000000000900463ffffffff16806306f2057a1461014e5780630a69df581461017b5780631ca57714146101aa578063293af812146101d95780632f265cf7146101ee57806335da24f914610229578063392e6678146102505780633eb6b3501461028f5780635374be8f146102be578063555a1ad6146102fd5780635b9eb761146103325780636552e3c61461035f5780636cfd8b821461038e5780636ec4847a146103a3578063922133e3146103d05780639b7c4d791461040b578063a10cfae51461043a578063a6aba0ac14610469578063a711b878146104a4578063b8381c7814610526578063c9ccaea114610580578063d05841a014610627578063f5d5584d14610681578063f7c2c4c5146106a8578063ff3c1a8f146106cf575b600080fd5b341561015957600080fd5b61016161075d565b604051808215151515815260200191505060405180910390f35b341561018657600080fd5b61018e61078e565b604051808260ff1660ff16815260200191505060405180910390f35b34156101b557600080fd5b6101bd6107a8565b604051808260ff1660ff16815260200191505060405180910390f35b34156101e457600080fd5b6101ec6107c2565b005b34156101f957600080fd5b6102136004808035600019169060200190919050506107e3565b6040518082815260200191505060405180910390f35b341561023457600080fd5b61024e600480803560001916906020019091905050610859565b005b341561025b57600080fd5b61027560048080356000191690602001909190505061097f565b604051808215151515815260200191505060405180910390f35b341561029a57600080fd5b6102a2610a0e565b604051808260ff1660ff16815260200191505060405180910390f35b34156102c957600080fd5b6102e3600480803560001916906020019091905050610a25565b604051808215151515815260200191505060405180910390f35b341561030857600080fd5b610310610a98565b604051808263ffffffff1663ffffffff16815260200191505060405180910390f35b341561033d57600080fd5b610345610ab5565b604051808215151515815260200191505060405180910390f35b341561036a57600080fd5b610372610aec565b604051808260ff1660ff16815260200191505060405180910390f35b341561039957600080fd5b6103a1610b03565b005b34156103ae57600080fd5b6103b6610cf5565b604051808215151515815260200191505060405180910390f35b34156103db57600080fd5b6103f5600480803560001916906020019091905050610d77565b6040518082815260200191505060405180910390f35b341561041657600080fd5b61041e610db8565b604051808260ff1660ff16815260200191505060405180910390f35b341561044557600080fd5b61044d610dcf565b604051808260ff1660ff16815260200191505060405180910390f35b341561047457600080fd5b61048e600480803560001916906020019091905050610de9565b6040518082815260200191505060405180910390f35b34156104af57600080fd5b6104cf600480803567ffffffffffffffff16906020019091905050610e2a565b6040518080602001828103825283818151815260200191508051906020019060200280838360005b838110156105125780820151818401526020810190506104f7565b505050509050019250505060405180910390f35b341561053157600080fd5b61057e600480803590602001908201803590602001908080602002602001604051908101604052809392919081815260200183836020028082843782019150505050505091905050610eaa565b005b341561058b57600080fd5b6106256004808035906020019082018035906020019080806020026020016040519081016040528093929190818152602001838360200280828437820191505050505050919080356000191690602001909190803590602001908201803590602001908080602002602001604051908101604052809392919081815260200183836020028082843782019150505050505091905050610f7d565b005b341561063257600080fd5b61067f600480803590602001908201803590602001908080602002602001604051908101604052809392919081815260200183836020028082843782019150505050505091905050611176565b005b341561068c57600080fd5b6106a6600480803560001916906020019091905050611248565b005b34156106b357600080fd5b6106cd60048080356000191690602001909190505061136e565b005b34156106da57600080fd5b6106e2611494565b6040518080602001828103825283818151815260200191508051906020019080838360005b83811015610722578082015181840152602081019050610707565b50505050905090810190601f16801561074f5780820380516001836020036101000a031916815260200191505b509250505060405180910390f35b60006001600560020160009054906101000a900460ff1660ff161415610786576001905061078b565b600090505b90565b6000600560020160019054906101000a900460ff16905090565b6000600560000160009054906101000a900460ff16905090565b6001600560020160026101000a81548160ff021916908360ff160217905550565b60008015156107f061153f565b151514801561080a575060011515610806610ab5565b1515145b156108185760009050610854565b600015156108258361097f565b1515141561083257600080fd5b6000600201600083600019166000191681526020019081526020016000205490505b919050565b60001515610865610ab5565b1515148061087e57506000151561087a610cf5565b1515145b1561088857600080fd5b6001151561089461075d565b15151480156108af5750600015156108ab82610a25565b1515145b156108b957600080fd5b6001600560020160029054906101000a900460ff1660ff1614156108dc57600080fd5b6001600360010160003373ffffffffffffffffffffffffffffffffffffffff1673ffffffffffffffffffffffffffffffffffffffff16815260200190815260200160002060008282829054906101000a900460ff160192506101000a81548160ff021916908360ff1602179055506010601481819054906101000a900460ff168092919060010191906101000a81548160ff021916908360ff1602179055505050565b600080600090505b6000800180549050811015610a035760008001818154811015156109a757fe5b906000526020600020900154600a8160001916905550826000191660006001016000600a5460001916600019168152602001908152602001600020546000191614156109f65760019150610a08565b8080600101915050610987565b600091505b50919050565b6000601060149054906101000a900460ff16905090565b600080600090505b600360000180549050811015610a8d57600360000181815481101515610a4f57fe5b906000526020600020900154600f81600019169055508260001916600f54600019161415610a805760019150610a92565b8080600101915050610a2d565b600091505b50919050565b6000600560000160069054906101000a900463ffffffff16905090565b6000600560000160069054906101000a900463ffffffff1663ffffffff1642101515610ae45760009050610ae9565b600190505b90565b6000601060169054906101000a900460ff16905090565b6000601060009054906101000a900473ffffffffffffffffffffffffffffffffffffffff1673ffffffffffffffffffffffffffffffffffffffff163373ffffffffffffffffffffffffffffffffffffffff16141515610b6157600080fd5b6001600b81905550600090505b6000800180549050811015610cf2576000800181815481101515610b8e57fe5b906000526020600020900154600a8160001916905550610baf600a54611570565b60089080519060200190610bc492919061179f565b5060086040518082805460018160011615610100020316600290048015610c225780601f10610c00576101008083540402835291820191610c22565b820191906000526020600020905b815481529060010190602001808311610c0e575b5050915050604051809103902060006001016000600a54600019166000191681526020019081526020016000208160001916905550600b546000600201600060086040518082805460018160011615610100020316600290048015610cbe5780601f10610c9c576101008083540402835291820191610cbe565b820191906000526020600020905b815481529060010190602001808311610caa575b5050915050604051809103902060001916600019168152602001908152602001600020819055508080600101915050610b6e565b50565b6000600560000160059054906101000a900460ff1660ff16600360010160003373ffffffffffffffffffffffffffffffffffffffff1673ffffffffffffffffffffffffffffffffffffffff16815260200190815260200160002060009054906101000a900460ff1660ff161415610d6f5760009050610d74565b600190505b90565b6000801515610d858361097f565b15151415610d9257600080fd5b600060020160008360001916600019168152602001908152602001600020549050919050565b6000601060159054906101000a900460ff16905090565b6000600560020160029054906101000a900460ff16905090565b6000801515610df78361097f565b15151415610e0457600080fd5b600060020160008360001916600019168152602001908152602001600020549050919050565b610e3261181f565b60001515610e3f8361175d565b15151415610e4c57600080fd5b60008001805480602002602001604051908101604052809291908181526020018280548015610e9e57602002820191906000526020600020905b81546000191681526020019060010190808311610e86575b50505050509050919050565b6000601060009054906101000a900473ffffffffffffffffffffffffffffffffffffffff1673ffffffffffffffffffffffffffffffffffffffff163373ffffffffffffffffffffffffffffffffffffffff16141515610f0857600080fd5b600090505b8151811015610f79578181815181101515610f2457fe5b90602001906020020151600f816000191690555060036000018054806001018281610f4f9190611833565b91600052602060002090016000600f54909190915090600019169055508080600101915050610f0d565b5050565b6000801515610f8a610ab5565b15151480610fa3575060001515610f9f610cf5565b1515145b15610fad57600080fd5b60011515610fb961075d565b1515148015610fd4575060001515610fd084610a25565b1515145b15610fde57600080fd5b6001600560020160029054906101000a900460ff1660ff16141561100157600080fd5b83600d908051906020019061101792919061185f565b5081600e908051906020019061102e9291906118ac565b506001600360010160003373ffffffffffffffffffffffffffffffffffffffff1673ffffffffffffffffffffffffffffffffffffffff16815260200190815260200160002060008282829054906101000a900460ff160192506101000a81548160ff021916908360ff160217905550600090505b600e8054905081101561117057600e818154811015156110be57fe5b906000526020600020900154600a816000191690555060006001016000600a546000191660001916815260200190815260200160002054600c81600019169055506000151561110e600c5461097f565b1515141561111b57600080fd5b600d8181548110151561112a57fe5b906000526020600020900154600b81905550600b5460006002016000600c54600019166000191681526020019081526020016000208190555080806001019150506110a2565b50505050565b6000601060009054906101000a900473ffffffffffffffffffffffffffffffffffffffff1673ffffffffffffffffffffffffffffffffffffffff163373ffffffffffffffffffffffffffffffffffffffff161415156111d457600080fd5b600090505b81518110156112445781818151811015156111f057fe5b90602001906020020151600a816000191690555060008001805480600101828161121a9190611833565b91600052602060002090016000600a549091909150906000191690555080806001019150506111d9565b5050565b60001515611254610ab5565b1515148061126d575060001515611269610cf5565b1515145b1561127757600080fd5b6001151561128361075d565b151514801561129e57506000151561129a82610a25565b1515145b156112a857600080fd5b6001600560020160029054906101000a900460ff1660ff1614156112cb57600080fd5b6001600360010160003373ffffffffffffffffffffffffffffffffffffffff1673ffffffffffffffffffffffffffffffffffffffff16815260200190815260200160002060008282829054906101000a900460ff160192506101000a81548160ff021916908360ff1602179055506010601681819054906101000a900460ff168092919060010191906101000a81548160ff021916908360ff1602179055505050565b6000151561137a610ab5565b1515148061139357506000151561138f610cf5565b1515145b1561139d57600080fd5b600115156113a961075d565b15151480156113c45750600015156113c082610a25565b1515145b156113ce57600080fd5b6001600560020160029054906101000a900460ff1660ff1614156113f157600080fd5b6001600360010160003373ffffffffffffffffffffffffffffffffffffffff1673ffffffffffffffffffffffffffffffffffffffff16815260200190815260200160002060008282829054906101000a900460ff160192506101000a81548160ff021916908360ff1602179055506010601581819054906101000a900460ff168092919060010191906101000a81548160ff021916908360ff1602179055505050565b61149c6118ff565b60056001018054600181600116156101000203166002900480601f0160208091040260200160405190810160405280929190818152602001828054600181600116156101000203166002900480156115355780601f1061150a57610100808354040283529160200191611535565b820191906000526020600020905b81548152906001019060200180831161151857829003601f168201915b5050505050905090565b60006001600560000160009054906101000a900460ff1660ff161415611568576000905061156d565b600190505b90565b6115786118ff565b611580611913565b600080600061158d611913565b602060405180591061159c5750595b9080825280601f01601f1916602001820160405250945060009350600092505b602083101561167a578260080260020a876001900402600102915060007f010000000000000000000000000000000000000000000000000000000000000002827effffffffffffffffffffffffffffffffffffffffffffffffffffffffffffff191614151561166d5781858581518110151561163457fe5b9060200101907effffffffffffffffffffffffffffffffffffffffffffffffffffffffffffff1916908160001a90535083806001019450505b82806001019350506115bc565b836040518059106116885750595b9080825280601f01601f19166020018201604052509050600092505b838310156117505784838151811015156116ba57fe5b9060200101517f010000000000000000000000000000000000000000000000000000000000000090047f010000000000000000000000000000000000000000000000000000000000000002818481518110151561171357fe5b9060200101907effffffffffffffffffffffffffffffffffffffffffffffffffffffffffffff1916908160001a90535082806001019350506116a4565b8095505050505050919050565b6000600560000160019054906101000a900463ffffffff1663ffffffff168267ffffffffffffffff161415611795576001905061179a565b600090505b919050565b828054600181600116156101000203166002900490600052602060002090601f016020900481019282601f106117e057805160ff191683800117855561180e565b8280016001018555821561180e579182015b8281111561180d5782518255916020019190600101906117f2565b5b50905061181b9190611927565b5090565b602060405190810160405280600081525090565b81548183558181151161185a57818360005260206000209182019101611859919061194c565b5b505050565b82805482825590600052602060002090810192821561189b579160200282015b8281111561189a57825182559160200191906001019061187f565b5b5090506118a89190611927565b5090565b8280548282559060005260206000209081019282156118ee579160200282015b828111156118ed5782518290600019169055916020019190600101906118cc565b5b5090506118fb919061194c565b5090565b602060405190810160405280600081525090565b602060405190810160405280600081525090565b61194991905b8082111561194557600081600090555060010161192d565b5090565b90565b61196e91905b8082111561196a576000816000905550600101611952565b5090565b905600a165627a7a7230582095616cc4619f4dda8bf2e5a582f6b5629f6099c77c4dd1a1cda86f255831036b0029",
  "source": "pragma solidity ^0.4.19;\n\ncontract Voting {\n\n    struct Ballot {\n        uint8 ballotType;\n        uint32 ballotId;\n        uint8 voteLimit;\n        uint32 timeLimit;\n        string title;\n        uint8 whitelist;\n        uint8 votesToWin;\n        uint8 ended;\n    }\n\n    struct Candidates {\n        bytes32[] candidateList;\n        mapping (bytes32 => bytes32) candidateHash;\n        mapping (bytes32 => uint256) votesReceived;\n    }\n\n    struct Voter {\n        bytes32[] whitelisted;\n        mapping (address => uint8) attemptedVotes;\n    }\n\n    Candidates c;\n    Voter v;\n    Ballot b;\n\n    string convertCandidate;\n    string tempTitle;\n    bytes32 tempCandidate;\n    uint256 tempVote;\n    bytes32 tempHash;\n    uint256[] tempVotes;\n    bytes32[] tempCandidates;\n    bytes32 tempEmail;\n    address owner;\n    uint8 winningpVote;\n    uint8 runneruppVote;\n    uint8 losingpVote;\n\n    function Voting(uint32 _timeLimit, uint8 _ballotType, uint8 _voteLimit, uint32 _ballotId, string _title, uint8 _whitelist, uint8 _votesToWin, address _owner) public {\n        b.timeLimit = _timeLimit;\n        b.ballotType = _ballotType;\n        b.voteLimit = _voteLimit;\n        b.ballotId = _ballotId;\n        b.title = _title;\n        b.whitelist = _whitelist;\n        b.votesToWin = _votesToWin;\n        b.ended = 0;\n\n        owner = _owner;\n        winningpVote = 0;\n        runneruppVote = 0;\n        losingpVote = 0;\n    }\n\n    modifier onlyOwner {\n        require(msg.sender == owner);\n        _;\n    }\n\n    event DelayVoting();\n\n    function setCandidates(bytes32[] _candidates) public onlyOwner {\n        for(uint i = 0; i < _candidates.length; i++) {\n            tempCandidate = _candidates[i];\n            c.candidateList.push(tempCandidate);\n        }\n    }\n\n    function setWhitelisted(bytes32[] _emails) public onlyOwner {\n        for(uint i = 0; i < _emails.length; i++) {\n            tempEmail = _emails[i];\n            v.whitelisted.push(tempEmail);\n        }\n    }\n\n    function hashCandidates() public onlyOwner {\n        tempVote = 1;\n        for(uint i = 0; i < c.candidateList.length; i++) {\n            tempCandidate = c.candidateList[i];\n            convertCandidate = bytes32ToString(tempCandidate);\n            c.candidateHash[tempCandidate] = keccak256(convertCandidate);\n            c.votesReceived[keccak256(convertCandidate)] = tempVote;\n        }\n    }\n\n    function voteForCandidate(uint256[] _votes, bytes32 _email, bytes32[] _candidates) public {\n        if (checkTimelimit() == false || checkVoteattempts() == false) revert();\n        if (checkWhitelist() == true && checkifWhitelisted(_email) == false) revert();\n        if (b.ended == 1) revert();\n        tempVotes = _votes;\n        tempCandidates = _candidates;\n        v.attemptedVotes[msg.sender] += 1;\n\n        for(uint i = 0; i < tempCandidates.length; i++) {\n            tempCandidate = tempCandidates[i];\n            tempHash = c.candidateHash[tempCandidate];\n            if (validCandidate(tempHash) == false) revert();\n            tempVote = tempVotes[i];\n            c.votesReceived[tempHash] = tempVote;\n        }\n    }\n\n    function votesFor(bytes32 cHash) public view returns (uint256){\n        if (validCandidate(cHash) == false) revert();\n        return c.votesReceived[cHash];\n    }\n\n    function totalVotesFor(bytes32 cHash) public view returns (uint256){\n        if (checkBallottype() == false && checkTimelimit() == true) return 0;\n        if (validCandidate(cHash) == false) revert();\n        return c.votesReceived[cHash];\n    }\n\n    function bytes32ToString(bytes32 x) private pure returns (string) {\n        bytes memory bytesString = new bytes(32);\n        uint charCount = 0;\n        for (uint j = 0; j < 32; j++) {\n            byte char = byte(bytes32(uint(x) * 2 ** (8 * j)));\n            if (char != 0) {\n                bytesString[charCount] = char;\n                charCount++;\n            }\n        }\n        bytes memory bytesStringTrimmed = new bytes(charCount);\n        for (j = 0; j < charCount; j++) {\n            bytesStringTrimmed[j] = bytesString[j];\n        }\n        return string(bytesStringTrimmed);\n    }\n\n    function validCandidate(bytes32 cHash) public view returns (bool) {\n        for(uint k = 0; k < c.candidateList.length; k++) {\n            tempCandidate = c.candidateList[k];\n            if (c.candidateHash[tempCandidate] == cHash) {\n                return true;\n            }\n        }\n        return false;\n    }\n\n    function candidateList(uint64 _ballotID) public view returns (bytes32[]) {\n        if (checkballotID(_ballotID) == false) revert();\n        return c.candidateList;\n    }\n\n    function checkTimelimit() public view returns (bool) {\n        if (block.timestamp >= b.timeLimit) return false;\n        else return true;\n    }\n\n    function checkVotesToWin(bytes32 cHash) public view returns (uint256) {\n        if (validCandidate(cHash) == false) revert();\n        return c.votesReceived[cHash];\n    }\n\n    function checkBallottype() private view returns (bool) {\n        if (b.ballotType == 1) return false;\n        else return true;\n    }\n\n    function checkballotID(uint64 ballotID) private view returns (bool) {\n        if (ballotID == b.ballotId) return true;\n        else return false;\n    }\n\n    function checkVoteattempts() public view returns (bool) {\n        if (v.attemptedVotes[msg.sender] == b.voteLimit) return false;\n        else return true;\n    }\n\n    function checkWhitelist() public view returns (bool) {\n        if (b.whitelist == 1) return true;\n        else return false;\n    }\n\n    function checkifWhitelisted(bytes32 email) public view returns (bool) {\n        for(uint j = 0; j < v.whitelisted.length; j++) {\n            tempEmail = v.whitelisted[j];\n            if (tempEmail == email) {\n                return true;\n            }\n        }\n        return false;\n    }\n\n    function getTimelimit() public view returns (uint32) {\n        return b.timeLimit;\n    }\n\n    function getTitle() public view returns (string) {\n        return b.title;\n    }\n\n    function getBallotType() public view returns (uint8) {\n        return b.ballotType;\n    }\n\n    function getVotesToWin() public view returns (uint8) {\n        return b.votesToWin;\n    }\n\n    function getBallotStatus() public view returns (uint8) {\n        return b.ended;\n    }\n\n    function changeBallotStatus() public {\n        b.ended = 1;\n    }\n\n    function addVoteForWinning(bytes32 _email) public {\n        if (checkTimelimit() == false || checkVoteattempts() == false) revert();\n        if (checkWhitelist() == true && checkifWhitelisted(_email) == false) revert();\n        if (b.ended == 1) revert();\n        v.attemptedVotes[msg.sender] += 1;\n\n        winningpVote++;\n    }\n\n    function addVoteForRunnerUp(bytes32 _email) public {\n        if (checkTimelimit() == false || checkVoteattempts() == false) revert();\n        if (checkWhitelist() == true && checkifWhitelisted(_email) == false) revert();\n        if (b.ended == 1) revert();\n        v.attemptedVotes[msg.sender] += 1;\n\n        runneruppVote++;\n    }\n\n    function addVoteForLosing(bytes32 _email) public {\n        if (checkTimelimit() == false || checkVoteattempts() == false) revert();\n        if (checkWhitelist() == true && checkifWhitelisted(_email) == false) revert();\n        if (b.ended == 1) revert();\n        v.attemptedVotes[msg.sender] += 1;\n\n        losingpVote++;\n    }\n\n    function getpVotesWinning() public view returns (uint8) {\n        return winningpVote;\n    }\n\n    function getpVotesRunnerUp() public view returns (uint8) {\n        return runneruppVote;\n    }\n\n    function getpVotesLosing() public view returns (uint8) {\n        return losingpVote;\n    }\n}\n",
  "sourcePath": "/home/ispm-eth/Ethereum/GenVote/contracts/Voting.sol",
  "compiler": {
    "name": "solc",
    "version": "0.4.19+commit.c4cbbb05.Emscripten.clang"
  },
  "schemaVersion": "1.0.1",
  "updatedAt": "2018-10-09T02:43:39.161Z"
}